:020000041000EA
:1000000000B5324B212058609868022188439860DF
:10001000D860186158612E4B002199600221596106
:100020000121F02299502B49196001219960352056
:1000300000F044F80222904214D00621196600F024
:1000400034F8196E01211966002018661A6600F04E
:100050002CF8196E196E196E052000F02FF8012189
:100060000842F9D1002199601B49196000215960AB
:100070001A491B48016001219960EB211966A021F2
:10008000196600F012F800219960164914480160C1
:100090000121996001BC002800D000471248134993
:1000A000086003C880F30888084703B5996A0420EC
:1000B0000142FBD001200142F8D103BD02B5186610
:1000C0001866FFF7F2FF186E186E02BD00000240BE
:1000D000000000180000070000035F00212200005C
:1000E000F4000018222000A00001001008ED00E03C
:1000F00000000000000000000000000074B24E7A12
:1001000000200420F7010010C3010010C5010010F9
:10011000C1010010C1010010C1010010C101001097
:10012000C1010010C1010010C1010010C701001081
:10013000C1010010C1010010C9010010CB01001065
:10014000CD010010CD010010CD010010CD01001037
:10015000CD010010CD010010CD010010CD01001027
:10016000CD010010CD010010CD010010CD01001017
:10017000CD010010CD010010CD010010CD01001007
:10018000CD010010CD010010CD010010CD010010F7
:10019000CD010010CD010010CD010010CD010010E7
:1001A000CD010010CD010010CD010010CD010010D7
:1001B000CD010010CD010010CD010010CD010010C7
:1001C00000BE00BE00BE00BE00BE00BEEFF3058054
:1001D000103800BEF2EB8871288F00104C8F001091
:1001E0003802001090A31AE71E481F49086006C88D
:1001F00081F3088810471D480068002801D019487D
:10020000F3E70DA40ECC002902D000F012F8F9E7B4
:100210001749184A002000E001C19142FCD116495B
:100220008847164988471649884700BEFDE701C937
:1002300001C29A42FBD370474C8F0010C0000020CF
:10024000600C0020EC9A0010000004200000042044
:10025000EC9A0010001004200010042000000000A0
:10026000704700000000000008ED00E0000000D032
:10027000600C0020142000207D470010390D001074
:100280003D470010F8B5C04606480749091A8B10CB
:10029000C90FC91810B5491003D0044B002B00D06A
:1002A000984710BD600C0020600C0020000000008A
:1002B000054B10B5002B03D00449054800E000BFF2
:1002C000FFF7E2FF10BDC046000000009C1D0020AB
:1002D0001C79001010B5002A1BD0202300291AD049
:1002E00010242343002918D040242343836300298A
:1002F00005D0436B38210B40094941180B60002A97
:1003000006D0436B07221340054A944660440360BD
:1003100010BD0023E2E70024E3E70024E5E7C04640
:100320003410000082B000226B46D91D06E08369BC
:10033000DB06FCD403680B7001320131002AF6D0D1
:100340006B46D87902B070471D4B1B78002B03D049
:10035000D0231B0640225A611A4B1B78002B03D076
:10036000D0231B0680225A61174A13780133DBB26F
:100370001370132B08D9D0231B0640229A61124B0D
:1003800000221A700E4B1A70104A13780133DBB238
:100390001370132B08D9D0231B0680229A610B4BB4
:1003A00000221A70074B1A70094B1B889BB2002B56
:1003B00004D0074A1388013B9BB213807047C046A4
:1003C0000A2000200B200020082000200920002007
:1003D000FA1F0020D0231B065B689B0105D5D023A4
:1003E0001B06802292049A617047D0231B0680224C
:1003F00092045A61F8E7000070B52D4B9B69DB064B
:1004000004D52C4B9B69DB0629D570BD2A4B0122F4
:100410001A702A4C2588ADB22548FFF783FF284B78
:100420005855238801339BB2238023889BB28C22AA
:10043000920093420BD01E4B5B68012B0BD01C4BE0
:100440005B68082BE1D11F4B08221A60DDE71B4BCC
:1004500000221A80EFE71B4B01221A60EFE71A4BCC
:1004600001221A70194C23889DB201339BB223805C
:100470001048FFF757FF164B585523889BB28C2224
:10048000920093420BD00B4B5B68012B0BD0094BB6
:100490005B68082BB9D10F4B08221A60B5E70B4BEC
:1004A00000221A80EFE70B4B01221A60EFE7C046EB
:1004B00000800340004003400A200020FE1F00206F
:1004C000600C002004B003400B200020022000201C
:1004D000900E002004700340F0B5C64600B584B00D
:1004E00004000E0017001D0001F0D2FA8046E1174B
:1004F000FA2292000023200002F082FF02000B008B
:10050000029501970096404601F0B8FC04B080BC0B
:10051000B846F0BD10B54378422B0ED00278104992
:100520008A5C002A09D0612B0DD0012A0BD0012B47
:100530000FD0022A0DD0002004E00A49082203F05F
:100540001FF8082010BD0849092203F019F80920F6
:10055000F8E70649082203F013F80820F2E7C0463E
:100560007C190020A07B0010A87B0010B47B001039
:1005700030B509E00302000A157868404000405A8F
:10058000584080B2230001325C1EE4B2002BF1D14E
:1005900030BD0000F0B5C64600B5344CA54405009A
:1005A000884601F0FDFC06000F00002300938B221B
:1005B0009200002101A802F0DDFF00240EE02C4B88
:1005C0001B889BB29C420CD02A4B1B5D42461355A4
:1005D0000134E4B201F0E4FC06000F00264B9D421A
:1005E000EDD0264B9D4218D001F0DAFC801BB941BA
:1005F000002903DCF2D1224B9842EFD9012C33D9E8
:100600001D4B9D4202D01D4B9D4216D020008C23D5
:100610009B009D4480BCB846F0BD1A4B1B889BB222
:100620009C42E1D0184B1B5D424613550134E4B2A5
:1006300001F0B6FC06000F00D0E7220041466846F4
:1006400002F09EFF6B461D795B791B021D43002360
:100650006A46137153710D4923000D48FFF788FF57
:100660008542D3D00024D1E70024CFE7D0FDFFFF9F
:10067000FE1F0020600C002000800340004003406B
:1006800037C7000002200020900E0020A079001043
:10069000FFFF000000B5182800D9FDE18000E84BFD
:1006A0001B589F46D0231B06802252039A6180224A
:1006B00012039A618022D2029A61802292035A61C7
:1006C0008022D2049A61802212059A6100BDD02353
:1006D0001B06802252039A61802212039A618022B3
:1006E000D2025A61802292035A618022D2049A6116
:1006F000802212059A61E9E7D0231B06802252036B
:100700009A61802212035A618022D2029A61802269
:1007100092035A618022D2049A61802212059A6162
:10072000D4E7D0231B06802252039A618022120351
:100730005A618022D2025A61802292035A61802239
:10074000D2049A61802212059A61BFE7D0231B066A
:10075000802252035A61802212039A618022D202BF
:100760009A61802292039A618022D2049A61802247
:1007700012055A61AAE7D0231B06802252039A6110
:10078000802212039A618022D2029A61802292030F
:100790009A618022D2049A61802212055A6195E7FB
:1007A000D0231B06802252035A61802212039A61D1
:1007B0008022D2029A61802292035A618022D2045E
:1007C0009A61802212059A6180E7D0231B0680225D
:1007D00052035A61802212039A618022D2025A6126
:1007E000802292035A618022D2049A6180221205EB
:1007F0009A616BE7D0231B06802252035A61802244
:1008000012035A618022D2029A61802292035A61B5
:100810008022D2049A61802212059A6156E7D02381
:100820001B06802252035A61802212035A618022E1
:10083000D2025A61802292035A618022D2049A61C4
:10084000802212059A6141E7D0231B0680225203C1
:100850005A61802212039A618022D2025A61802258
:1008600092039A618022D2049A61802212055A6111
:100870002CE7D0231B06802252039A6180221203A8
:100880009A618022D2025A61802292039A61802268
:10089000D2049A61802212055A6117E7D0231B0601
:1008A000802252039A61802212039A618022D2022E
:1008B0009A61802292039A618022D2045A61802236
:1008C00012059A6102E7D0231B06802252039A6127
:1008D000802212039A618022D2025A6180229203FE
:1008E0009A618022D2045A61802212059A61EDE653
:1008F000D0231B06802252039A61802212035A6180
:100900008022D2029A61802292039A618022D204CC
:100910005A61802212059A61D8E6D0231B068022F4
:1009200052039A61802212035A618022D2025A61D4
:10093000802292039A618022D2045A618022120599
:100940009A61C3E6D0231B06802252035A6180229B
:1009500012035A618022D2029A61802292039A6124
:100960008022D2049A61802212055A61AEE6D02319
:100970001B06802252039A61802212035A61802250
:10098000D2029A61802292039A618022D2049A61F3
:10099000802212055A6199E6D0231B068022520359
:1009A0005A61802212039A618022D2029A618022C7
:1009B00092039A618022D2045A61802212059A61C0
:1009C00084E6D0231B06802252035A618022120340
:1009D0009A618022D2025A61802292039A61802217
:1009E000D2045A61802212059A616FE6D0231B0659
:1009F000802252035A61802212035A618022D2025D
:100A00009A61802292039A618022D2045A618022E4
:100A100012059A615AE6D0231B06802252035A61BE
:100A2000802212035A618022D2025A6180229203EC
:100A30009A618022D2045A61802212059A6145E6A9
:100A400020790010D0231B06802252035A61802295
:100A500012035A618022D2025A61802292039A6163
:100A60008022D2049A61802212055A612EE6D02398
:100A70001B06802252039A61802212035A6180224F
:100A8000D2025A61802292039A618022D2049A6132
:100A9000802212055A6119E6D0231B0680225203D8
:100AA0009A61802212039A618022D2029A61802286
:100AB00092039A618022D2049A61802212059A617F
:100AC00004E6C04610B584B002AC207080235B42BF
:100AD0000B436370A2701349052322001248FFF7ED
:100AE00047FDE070000A207100240FE00F4B9B6966
:100AF0009B06FBD410780D4B1860013101320029A0
:100B0000F4D00B4B01221A700134E4B2042C06D845
:100B100002AB1B5D6A46073213700021EFE704B099
:100B200010BDC046A0790010FFFF00000080034008
:100B30000A200020F0B5C64600B5764CA5448EA923
:100B40007548FFF727FD00281AD08EAB1C78631E6E
:100B5000DBB2172B19D88EA8FFF7DCFC05002000AC
:100B6000FFF798FD0A2001F0E9F88C22920000219D
:100B700002A802F0FFFC694B00221A80002631E037
:100B800003220021FFF79EFF16E08EAB5978022268
:100B90002000FFF797FF8C24A400220000218EA8DC
:100BA00002F0E8FC2200002102A802F0E3FC5C4B0A
:100BB00000221A80594B1A808D23DB009D4480BC93
:100BC000B846F0BD574B9B699B06FBD40878554B44
:100BD000186001320131002AF4D0534B01221A70FF
:100BE0000136F6B2AE4207D28EAB9A5D6B46DA7131
:100BF00000226B46D91DEEE78C22920000218EA8C0
:100C000002F0B8FC464B00221A8001F0C9F9060038
:100C10000F001EE06420002101F07EF809216944E4
:100C20004048FFF7B7FC002835D1404B00251D5543
:100C30008C239B0098461A0000218EA802F09AFC93
:100C40004246002102A802F095FC354B1D80334B33
:100C50001D8001F0A5F9801BB941002903DCD9D121
:100C6000334B9842D6D98EAB59780B222000FFF730
:100C700029FF8C24A400220000218EA802F07AFC17
:100C80002200002102A802F075FC254B00221A80E8
:100C9000224B1A8090E7274B01221A706B461C7278
:100CA0005B7A422B03D0612B04D0002516E01F4B4A
:100CB0001A55FAE71D4B02221A55F6E7164B9B69A7
:100CC0009B06FBD40C78144B1C6001320131002AC6
:100CD000F4D0154B01221A700135EDB2854207D8C8
:100CE00002AB5A5D6B46DA7100226B46D91DEEE706
:100CF0008C24A400220000218EA802F03BFC2200DC
:100D0000002102A802F036FC054B00221A80034B9A
:100D10001A8051E798FBFFFF00800340022000206B
:100D2000FE1F0020004003400A2000207C19002004
:100D30001FA107000B200020F0B5D6464F464646BF
:100D4000C0B503F039FEFA200121400101F080FB1B
:100D5000122000F011F9132000F00EF9142000F019
:100D60000BF9152000F008F91A2000F005F91B20F6
:100D700000F002F9192000F0FFF8072000F0FCF85D
:100D8000062000F0F9F8162000F0F6F8D02424062A
:100D90008023DB029946636280231B0398466362CB
:100DA00080235B039C4663628026B60366628025CF
:100DB000ED04656280200005606280218904616223
:100DC0008022626240239A4663628027FF03676243
:100DD0004B46A3614346A3616346A361A661A56137
:100DE000A061A161A2615346A361A761454B464939
:100DF00000220A20FFF770FB444B4549FA225200BB
:100E0000904600224046FFF767FB96231B02994657
:100E1000404E1900300001F089F90221092000F04C
:100E200091F80221082000F08DF83B4D494628003A
:100E300001F07CF90221102000F084F80221112039
:100E400000F080F8336BC022120291461340334AFF
:100E50001360002301220821300001F035F9002140
:100E6000300001F047F92B6B4A4613402C4A1360BF
:100E7000002301220821280001F026F90021280082
:100E800001F038F9274B99461900152000F0EAF9CE
:100E90000121152000F0BEF9002201213000FFF7EA
:100EA00019FA4946142000F0DDF90121142000F060
:100EB000B1F9002201212800FFF70CFA1A4B002596
:100EC0001D701A4B1D701A481822002102F052FBA7
:100ED000404600F033FF6761164B1D80164B1D80A6
:100EE000164B1D80164B1D8001E0FFF723FE01F01D
:100EF00067FA114B1B889BB2002BF6D1642000F0DF
:100F00001DFFF4E748120020490300106012002082
:100F1000D5030010008003400040034030900340A0
:100F200030500340F90300100A2000200B2000205D
:100F30007C190020FC1F0020FE1F00200020002044
:100F40000220002010B58300084A9A181468402235
:100F5000544080322240064CA44663441A60C000CC
:100F6000044B9C466044416010BDC04604C0014033
:100F700004D001400040014010B501238340D0223D
:100F80001206936293610521FFF7DCFF10BD00009C
:100F900010B58023DB0518680205120D030B1B0436
:100FA0001B0C09498A4203D1022B07D1000F10BD47
:100FB000064B074A0748222103F0C4FB064B044AAC
:100FC0000448232103F0BEFB27090000BC7B00106E
:100FD000347C0010E07B0010207C00100FB400B5C2
:100FE00083B0084803F0ECFC049B002B07D005A954
:100FF0000191180003F0F4FC034803F0E1FC012028
:1010000003F09AFB487C0010587C0010EFF310802E
:1010100072B6034B1B68002BFBD0BFF35F8F70478A
:101020002C0100D0BFF35F8F024B00221A6080F3C7
:10103000108870472C0100D0F8B506000C00150090
:10104000FFF7E4FFE308F718F15C072222400123D1
:1010500093400B4205D1DBB20B433B70FFF7E2FF3D
:10106000F8BD21002800FFF7B9FFF0B583B00600F6
:10107000019114001F00FFF7C9FF00E00134BC42DA
:101080000CD8E308F518F35C0721214001228A40BF
:101090001A42F3D1D2B21A432A7001E00124644209
:1010A000FFF7C0FF002C02DB200003B0F0BD019B66
:1010B000002BF9D00898FFF791FF0000054A10783F
:1010C000431CDBB21370172B02D9130010221A70C5
:1010D0007047C046900B002010B582B00100054C4F
:1010E000054B00931F2318222000FFF7BEFF02B01C
:1010F00010BDC046181900205C7C0010002307E0DA
:10110000054A9A189200BFF35F8F002111600133E6
:101110001F2BF5D97047C04640000034074B9B6831
:10112000103080001950BFF35F8FBFF35F8F044B07
:101130000021196082F310887047C04600ED00E07E
:10114000240100D00048704700E400E010B5FFF72C
:10115000F9FF002302E0034A04C00133072BFAD948
:1011600010BDC0468080808010B50388DA0A1C2A32
:1011700005D15B055B1502335B00C01810BD034B46
:10118000034A16210348FF3103F0DCFA787C001093
:101190008C7E0010907C001010B5091A0B1F0A4AB3
:1011A00088180A4A904208D8C90706D45B105B0524
:1011B0005B0D0748184380B210BD064B064A082154
:1011C0000648FF3103F0BEFAFC070000FE0F0000E6
:1011D00000E0FFFFD07C0010807E0010907C0010AB
:1011E00001238340034A10681840431E9841C0B24F
:1011F0007047C04600E100E0002A05D0044BC02241
:101200005200995019607047014A8023D150FAE783
:1012100000E100E010B50A001F23034001219940BE
:101220004009FFF7E9FF10BD01238340014A136025
:101230007047C04600E200E0024B9B68103080001F
:10124000C058704700ED00E010B5FFF7F5FF044B04
:10125000C31A00202F229A424041C0B210BDC0469E
:10126000940B002070B504000D00EFF3108672B6E9
:101270000C4B1B68002BFBD0BFF35F8F2000FFF7E8
:10128000DBFF094B984201D0A84205D1320029006A
:101290002000FFF743FF70BD044B054A0548E721D6
:1012A00003F050FA240100D0CD010010007D0010A1
:1012B000B47E0010907C0010F0B5DE4657464E46D6
:1012C0004546E0B589B0814601911500EFF3108BDA
:1012D00072B66F4B1B68002BFBD0BFF35F8F6D4B5B
:1012E00000269E57002E40DB7400A419A4006A4813
:1012F00024180622A256674B1A70684B9A684B4610
:1013000010339B00D35898461B1A2F2B3BD9644BA4
:10131000984531D105AF634B3B80634973009A46D2
:10132000981980005C4B984640440230FFF734FF28
:1013300078805E4BBB80FF23BB71FD71019B0793DF
:10134000330053449B00434407CF07C301231C438E
:10135000A0465A4641464846FFF7E0FE09B0F0BCB9
:10136000BB46B246A946A046F0BD514B514A742136
:101370005148FF3103F0E6F9504B4E4ABD214E482B
:10138000490003F0DFF9012342469A439246101ABE
:101390000C2101F0F9F900290FD153460027DA7921
:1013A000AA4212D90621595600290DDB4A005218CB
:1013B000920039491F008B18F1E7414B3D4A8C21BF
:1013C0003D48FF3103F0BEF91F00002F2ED005ABC2
:1013D0003C4A1A80813A5A800623FB560293002B1E
:1013E00017DA394805AB9A469880029A9A71DD71EE
:1013F000019A0792381D2100FFF7CEFEB880BE711A
:10140000254B7200921992009B18524613CA13C3BF
:101410009FE7381DFFF7A8FE0100700080198000CB
:101420001D4BC0180430FFF7B7FEDBE705AF1D4BBF
:101430003B801D49730002939B199B00164A9046FE
:101440001A0042440392901CFFF7A6FE7880039A8C
:10145000101D5146FFF7A0FEB8801C4B5246414676
:10146000521A524153431B0DBB71FD71019A0792F1
:10147000029B9B199B00434407CF07C3114B524665
:101480001380813B538001231C43A04661E7C04683
:10149000240100D00C200020940B002000ED00E07F
:1014A000CD01001000A1FFFFC40B002001BDFFFF14
:1014B000387D00109C7E0010907C0010607D001034
:1014C000887D00100148000001BD0000AAAA0000AC
:1014D000F8B5012202432D4BD31A2F2B28D8EFF356
:1014E0000583002B2BD0EFF3108472B628490968CE
:1014F0000029FBD0BFF35F8F244D26490600761BE1
:1015000076417143090D4DB2234989689B00C95842
:1015100091421AD00021032931D81C4B4A0052189D
:1015200092009B189B795BB2AB421ED00131F2E76F
:101530001A4B1B4A9D211B48890003F003F91A4BE3
:10154000174A1848194903F0FDF8134A92681849D8
:10155000D150184B1A7882711D70BFF35F8F0C4BFE
:1015600000221A6084F31088F8BD084B4A00561810
:10157000B6009E19FF27B7710F4AB280E9E70F4BFB
:10158000074AA2210748890003F0DCF8940B0020E9
:10159000240100D0AAAA000000ED00E00C7E00109B
:1015A000647E0010907C0010347E001077020000F2
:1015B000CD0100100C20002001BDFFFF407E001077
:1015C00010B582B00100074C074B009305230022A1
:1015D0002000FFF74AFD002801DB1F23181A02B084
:1015E00010BDC04610200020487E0010024B9C46D3
:1015F00061448900016070474000003410B5040068
:10160000FFF75CFD01002000FFF7F0FFFF232371CF
:10161000BFF35F8F10BD10B50400FFF74FFD010051
:101620002000FFF7E3FFFF23237100236371BFF363
:101630005F8F10BD10B50D4C09E00D4B0D4A0E48E3
:101640001A2103F07FF82000FFF7D8FF08340B4B76
:101650009C4209D22368002BF5D0012BEDD120004C
:10166000FFF7D9FF0834F2E710BDC046580C002040
:10167000D07E0010A07F0010F07E0010600C0020D3
:10168000034B9C46614489000160BFF35F8F704744
:101690004000003410B504000120FFF71DFD0100DB
:1016A0002000FFF7EDFF10BD30B5846A151B0B1D40
:1016B0009B001B581B1B9D4204D3046A01238B40D3
:1016C000234202D1043189000A5030BD000408438E
:1016D000704700000A4B1968EFF3108372B60A686E
:1016E000002AFCD0BFF35F8F054A1268BFF35F8FFB
:1016F0000021116083F3108840BF00200021704753
:10170000D81F0020F0B5DE4657464E464546E0B5A8
:1017100083B0EFF3058303221A4011000192AC4B12
:101720009200D35898461B788B4207D10123019A27
:1017300093400093A74B009A1A6019E1A64BA74A61
:10174000A748922102F0FEFF43465A694B465B00D0
:101750004B44DB0093469B445B469E68DF68A14890
:1017600000F0ECFB801BB941002900DA0AE1002FF0
:1017700060DB5B461C699C4B9C4245D0434608207D
:10178000185E5B46598889B2FFF7A0FF5B4659692E
:10179000A04704000D0023002B434BD0002D3DDA61
:1017A00030003900001BA9415B469860D9600024D5
:1017B0001C5F002C00DAE5E043465A69924663005C
:1017C0001B19DB0053449A68DB6805000E00AD1A54
:1017D0009E41002E00DAD5E043461C81474608377B
:1017E000BC46634600255D5F002D1DDB6C0064195F
:1017F000E4005444A268E36806000F00B61A9F4153
:10180000002F11DBA446ECE75B465C6923692000EE
:10181000984700280ED065682468BCE7714800F03E
:101820008DFB00196941BFE75B461D804B46624650
:101830001380A7E05B4600229B5E4246138112693B
:10184000EFF3108372B611680029FCD0BFF35F8FED
:1018500042460221525E59460A804246494651801C
:101860001269BFF35F8F0021116083F3108889E054
:1018700043461969EFF3108372B60A68002AFCD058
:10188000BFF35F8F4246928812B2914601225242C4
:1018900041468A800A69BFF35F8F0021116083F39C
:1018A00010881AE09B465B4600229A5E002A0BDBFA
:1018B00053009B18DB0053449868D96826002F001A
:1018C000361A8F41002FEDDA4B4659460B8063469E
:1018D00000215B5E994663461A804B46002B57DB1E
:1018E00043465A6992464B465B004B44DB009C469C
:1018F000D44463469C68DD6846460836B346D2E762
:101900000023424693714146083143460820185E41
:1019100011E001225242D317A260E360434608223D
:101920009B5E834206D00D80434608229B5E238047
:10193000434618812800431C2ED043465A69430071
:101940001B18DB00D418D55E63881BB2002BE0DBCC
:101950002100EFE722002B0001992248FFF7A4FEA7
:10196000204800F0EBFA241A8D41002D28DC25D008
:101970001C4B009A5A63434608229B5E9946002BF3
:1019800000DBE1E643469B881BB2002B00DB6FE7E0
:1019900043469B79002BB3D1434608229A5E002A26
:1019A0000EDB4346596953009B18DB00CB189C683B
:1019B000DD68631CCED16B1CD2D0CBE7002CD7D016
:1019C00040BF03B0F0BCBB46B246A946A046F0BD3E
:1019D000BC1D00203C700540B47F0010A4800010A6
:1019E000E07F0010004005400517001070B50400AE
:1019F0000D0011000126AE4006622800FFF732FC00
:101A000001212800FFF706FC024B9C466444266037
:101A100070BDC04638200000F8B5CE46474680B5B8
:101A20000600894690461F00C160FFF747FB154B33
:101A30009C4660448000306143463370BBB2738182
:101A4000D022120612787270012252423281B28084
:101A50009B187380002406E0621E736965002D19CF
:101A6000ED005A530134BC42F6D3074B4246920074
:101A7000D650064A41464846FFF7B8FFC0BCB946B3
:101A8000B046F8BD40000034BC1D00200517001012
:101A900010B5064B1B69002B01D0044810BD044B48
:101AA000044A0548652102F04DFEC046DC0B0020CB
:101AB000188000108C800010E07F0010F8B5040042
:101AC0000569EFF3108072B629680029FCD0BFF3D6
:101AD0005F8F0221665E656971008919C9006D1802
:101AE000002E02DB0027E95F61802169BFF35F8F71
:101AF00000270F6080F31088002E2CDB06992961E7
:101B000007996961AA60EB606B8801335B04590C2B
:101B1000002B00D1012169803000FFF7D7FD21693A
:101B2000EFF3108372B60A68002AFCD0BFF35F8F10
:101B3000A2882A80A6802269BFF35F8F00211160EE
:101B400083F31088E368217801228A4003498C4698
:101B500063441A60F8BD01204042FBE73C200000CE
:101B600070B582B0060014001D0008AB1B78002B76
:101B700007D100F015FA22002B00121A8B41002B1E
:101B80000ADB079B0193069B009322002B00300089
:101B9000FFF794FF02B070BD0020FBE7F0B5C6462A
:101BA00000B584B00500884616001F000AAB1C78FB
:101BB000FFF76EFF0294019700962A004346FFF755
:101BC000CFFF04B080BCB846F0BD000030B50300C4
:101BD00008145A8990422EDA5C6942001218D20029
:101BE000A2181D69EFF3108472B628680028FCD093
:101BF000BFF35F8F508880B20904090C884212D06D
:101C000000201A69BFF35F8F0021116084F31088F0
:101C1000002811D0DA681B7801319940074B9C46A7
:101C20006244116008E00649014389B251800122F3
:101C30009A710120E5E7002030BDC0463C2000003D
:101C40000080FFFF10B50400FFF722FF2100FFF71F
:101C5000BDFF10BD40787047F0B583B006000F009F
:101C6000EFF30583002B1AD106246442E517A4196B
:101C70007D418D4202D803D1844201D90024002540
:101C800000F08EF922002B00121A8B41002B0BDC86
:101C900008D03000390000F095F903B0F0BD1A48C3
:101CA000FFF79CF9002AF4D0184A00230093200083
:101CB0002900FFF773FF002818DAEAE7002300E0A5
:101CC0000023002BE5D1124B1968EFF3108372B695
:101CD0000A68002AFCD0BFF35F8F0D4A1268BFF379
:101CE0005F8F0021116083F3108820BF094B5B6A6E
:101CF0009D42E5D80749896AA14203D29D42DDD0C1
:101D00000123DEE70123DCE73C800010D51600103C
:101D1000D81F00200040054070B504000D0000F001
:101D20003FF900196941002902DBFFF795FF70BDFB
:101D3000012040420049F8E7FFFFFF7F10B5FA227B
:101D400092000023002101F05BFBFFF7E5FF10BDCF
:101D5000F0B5CE46474680B583B005000C00EFF3E2
:101D60000583002B15D0434B5B6A8B4209D3414A54
:101D7000926A82420BD28B4201D0012002E0002005
:101D800000E0002003B0C0BCB946B046F0BD012061
:101D9000F8E7FFF77DFEC3689946037898462E0062
:101DA0002700484600F0CAF802000B00B61A9F410F
:101DB000434604339B004A469B581B1A0022BA42F2
:101DC0000FDC0CD020BF2B4B5B6A9C4220D8294AE9
:101DD000926AAA421ED29C4218D00120D2E7B34296
:101DE000F0D9254A0023009328002100FFF7D6FEF2
:101DF000002811DD1F4B5B6A9C4221D81D4A926A64
:101E0000AA422FD29C4219D001231AE00020B9E740
:101E10000020B7E70120B5E7164B5B6A9C4209D862
:101E2000144A926AAA4207D29C4201D00120A9E733
:101E30000020A7E70020A5E70120A3E7002300E09A
:101E40000023002B00D120BFFFF7FCFE094B5B6A8B
:101E50009C420BD8074A926AAA4209D29C4203D0FC
:101E600001208FE70123ECE700208BE7002089E7C2
:101E7000012087E700400540D5160010F0B585B079
:101E800005000C9C1100194301D101220023A5601B
:101E90000A992161226063600B996161D817010082
:101EA0004240160043401F00361A8F4100F078F878
:101EB00032003B0012184B41002B0DDB0121029137
:101EC0000194074900912800FFF74AFEE060C3171C
:101ED000181AC00F05B0F0BD01225242014BEDE7C8
:101EE00005170010FFFFFF7F0048704700400540C6
:101EF00010B50B4B1B69002B04D00A480A21FFF7D1
:101F000075FB10BDFFF7F0FF0400032100F00CF893
:101F10000348102303222100FFF77EFDEDE7C046B2
:101F2000DC0B0020D81F002010B5024A0248FFF742
:101F300083F810BDBC8000101C1900200200436A09
:101F4000906A1900536A9942FAD17047416A00E0D9
:101F5000416A9942FCD300E0416A994202D1816A08
:101F60009142F9D37047F0B5C64600B580461400DB
:101F70001D00FFF7E3FF06000F0022002B0092195F
:101F80007B41994202D804D1904202D901225242A7
:101F9000D3174046FFF7DAFF80BCB846F0BD00001B
:101FA00010B50248FFF7CAFF10BDC046004005400B
:101FB00010B502000B000248FFF7D5FF10BDC04668
:101FC0000040054010B502000B000248FFF7BEFFBD
:101FD00010BDC04600400540074B98420AD016236A
:101FE00001229A40054B1A60054B1B68110099436A
:101FF000FAD170471723F3E70080034000F0004058
:1020000008C0004070B5046BE30701D4200070BD28
:102010000B4BC3180B4A1A60456A836AAD01ED1871
:10202000AD02062000F034F9074900F0ADFB0100D5
:10203000280000F0A9FB0021FFF7BAFFE6E7C04641
:1020400030300000010300004E0E000070B50400A7
:102050000E001500FFF7D6FFE36A5E403540024BE5
:10206000E3181D60206370BD2C10000070B50500E2
:102070000C00062000F00CF9C000210000F084FBE9
:102080000130C60907D00E4B9E4215D840083400D7
:102090003F26064000E001246C62AE62002200216F
:1020A0002800FFF7D3FF062000F0F2F88000A1011E
:1020B000891900F069FB70BD0026024CECE7C046B0
:1020C000FEFF0000FFFF000010B505394901013A8D
:1020D000D2001143002B09D002220A43012B07D062
:1020E000002111436E22FFF7B1FF10BD0022F4E77B
:1020F0000421F6E710B5002900D010211022FFF7C7
:10210000A5FF10BD002909D00A22064B9C46604459
:1021100043425841044B4000C25270478022520053
:10212000F3E7C0460080FCBFE41F002070B5040048
:102130000D00062000F0ACF800281ED0104B9C4289
:102140001CD01622012393400E4A13602000FFF793
:1021500043FF00212000FFF7D5FF29002000FFF7F3
:1021600085FFE26A70235A400E331340064AA218D4
:102170001360064B23630323A36470BD1722E1E7BA
:102180000080034000E000402C100000010300002C
:10219000F8B5D646474680B506000D0017009846AC
:1021A00044002418A400294B9C4664446368089AA0
:1021B000934200D26260331FDBB29A46012B2ED9C4
:1021C00080221201C0239B01E3181A60204BB20049
:1021D000D158002907D0586900F0D6FA01304300E1
:1021E0001B18033BFDD27F0123685F40E0233B4087
:1021F00080225201A21813605346012B1AD9802362
:102200009B01E318802212011A60089B6360104B47
:10221000B6004246F250C0BCBA46B046F8BD012DE9
:10222000CED10322C0239B01E3181A60A368DB0709
:10223000FCD5D8E72168694003230B401360A368ED
:102240000122AA401A42FAD0D9E7C04600800040D5
:1022500020190020F0B583B005000E00170018000B
:10226000089900F091FA0300089A140200943A00C9
:1022700031002800FFF78CFF03B0F0BD10B582B02D
:10228000802464000094FFF783FF02B010BD0000BB
:10229000014B8000C058704720190020F0B5C64699
:1022A00000B504000E0017001D00374800F06CFA5E
:1022B0008046364BFA18364B9A4239D8010038001E
:1022C00000F062FA0200103A98235B009A4235D877
:1022D0006B1E062B38D8069B013B062B34D83F09D2
:1022E000474537D32D04069B1B031D432368002B52
:1022F00036DB284B9C4244D00C2201239340264AD3
:102300001360264A1360264A1268190091430A1E78
:10231000F9D12660A060234BE31821321A602268AD
:10232000002AFCDAE56008221A6080BCB846F0BDDD
:102330001D4B1E4A1E48112102F004FA1D4B1B4A78
:102340001B48192102F0FEF91B4B184A18481C21A2
:1023500002F0F8F9194B154A1548232102F0F2F959
:1023600022683F231340B342C3D1A3681B051B0D52
:102370008342BED1E368EE22D2021340AB42B8D111
:10238000D3E70D22B9E7C046001BB70080E84BD366
:1023900080F8A93200C0024000E0004000F0004098
:1023A00008C0004004300000E0800010F4810010FC
:1023B00030810010708100108C810010D8810010D5
:1023C000024B1A68024B5A607047C046941D0020A9
:1023D0000080054010B5184B8022D2051A60174BBB
:1023E000174A1A6000290AD0164BE022D2041A605C
:1023F000002809D1134B802212061A6010BD0E4B23
:10240000E022D2041A60F3E743011B1A9B001A185A
:10241000D2000D490A6018180001086080235B048F
:10242000984201D3094A0A60FFF7CAFF054B802290
:10243000D2051A60E2E7C04600B00540082001401E
:10244000FCFF010000A00540941D0020FFFFFF00DD
:1024500010B5034B034ADA61FFF7BCFF10BDC0465D
:10246000008005402131B76A10B5030010000C4A06
:102470008024E4051460002B0DD001221343094A87
:10248000094CD461094C5C40146251629362002192
:10249000FFF7A0FF10BD034B0022DA61F7E7C0464B
:1024A00000B0054000800540D3C007B02D3FF84F75
:1024B00080239B000B43014AD36270470080054094
:1024C00010B5010018231B8814221088984710BDEE
:1024D00010B5010018231B8816221088984710BDDC
:1024E000F0B5C64600B507000E000025012398464A
:1024F00000E00135B5420AD2AC003C192068FFF774
:10250000DFFF20600028F4D100239846F1E7404621
:1025100080BCB846F0BD000070B504000D00064850
:10252000FFF7CEFF0300002C03DB0120A0402900B1
:1025300098470020FBE7C04655420000074BAA22FF
:1025400012011A608D225200DA60054B054A1A60AA
:10255000024B5B68002BFBDA7047C046004002402C
:102560000060024000B0FA0010B5040001E008CCA1
:102570009847024B9C42FAD310BDC0461479001014
:102580007047000010B50248FFF7EEFF10BDC046CF
:10259000D8780010054B064A1A60064B064A1A60A6
:1025A000064B1A68044B9343FAD1704700E0004091
:1025B000BFCDFBFE00F00040FE7F3C0008C00040A5
:1025C000044BDB6C002B03D1034B8022D2021A6038
:1025D0007047C046000011504C201150044B054A72
:1025E0001A60054B1B68DB43DB01FAD17047C0461C
:1025F00000F00040FFFFFF0108C00040034B4022F5
:102600009A675A671A67DA667047C04600F0014059
:1026100010B5FEF773FD10BD70B5044DA968044CEC
:10262000C022200000F0ACFFAC6070BD00ED00E007
:102630000000002070B50420FFF72AFE064900F0D4
:10264000A3F805000024002C00DD70BDE0B22900D5
:10265000FFF72EFF0134F6E740420F0030B583B09C
:10266000274B00229A67FFF769FF264B01221A6069
:10267000234B5B6C012BFBD1234B03221A60204BB5
:102680009B6B012BFBD10133009304331F4A0121C3
:102690001F48FFF703FE052300931E4A01211E4831
:1026A000FFF7FCFD1D4B002202210420FFF7E6FD91
:1026B0001B4D2B00002201210520FFF7DFFD194CE7
:1026C0002300002200210720FFF7D8FD230000226D
:1026D00000210820FFF7D2FD8023DB0000932300B8
:1026E000002200210920FFF7B5FD2B000022002168
:1026F0000620FFF7C3FDFFF79DFF03B030BDC046C6
:10270000008000403CB0004030B00040002F6859CD
:1027100000800240008C864700C00240001BB700CA
:1027200040597307006CDC0201480421014B184733
:10273000000C0020E1240010124A936F9B0815D270
:102740009066D166002905D0FFE7FFE7FFE7516FEC
:10275000106F704704B580210906C2175140002848
:1027600000D0C84305F078F8002104BDF0B5146E20
:10277000556E576F166FFFF7E3FF14665566576780
:102780001667F0BD000000D0114A936F9B0813D26A
:1027900010665166002905D0FFE7FFE7FFE7516F9C
:1027A000106F704704B5002801D00020C04305F029
:1027B00053F8002104BDC046F0B5146E556E576F36
:1027C000166FFFF7E5FF1466556657671667F0BD8D
:1027D000000000D094464A4A926F9208624601D2A5
:1027E00028E0C046F0B5464E346E756E776F366F92
:1027F00000F020F89446424A1466556657671667FB
:102800006246F0BD94463E4A926F9208624601D2FB
:1028100054E0C046F0B53A4E346E756E776F366F41
:1028200000F04CF89446364A1466556657671667AA
:102830006246F0BD002B24DB11D000293EDA00B542
:10284000C943404200D1013100F038F8C943404249
:1028500000D10131DB43524200D1013300BD002AD7
:10286000EBD1002801D1002905D00020C90FC907EC
:1028700001D1C043410800B504F0DEFF002200236F
:1028800000BD00B500290ADBDB43524200D1013311
:1028900000F014F8C943404200D1013100BDC943E2
:1028A000404200D10131DB43524200D1013300F0FC
:1028B00005F8DB43524200D1013300BD002923D18A
:1028C000002B18D1002A0CD0BC460D4F38667A6612
:1028D00000210023FFE7FFE7FFE77A6F386F6746C5
:1028E0007047002801D00748010000B504F0A4FF9C
:1028F0000022002300BD02000B00002000217047D1
:10290000000000D0FFFFFFFF002B00D0BFE0130C42
:1029100028D1002AE7D080B4114F39667A66FFE7E4
:10292000FFE730B4040C7B6F396F1B0423433B6615
:102930007A66FFE7FFE7FFE7C04684B27B6F3D6F33
:102940001B0423433B667A66FFE7FFE7C04600238C
:102950002C042D0C7A6F386F00196941B0BC704798
:10296000000000D0F0B594460025140E01D11202EB
:102970000835140F01D112010435940F01D19200D2
:102980000235D40F01D152000135D40B0134254F4B
:102990007C66254C3C660E0C93B2FFE7FFE7FFE731
:1029A0003C6F6643360C7703BE467343DF0B5B0414
:1029B000C01AB941130C7343DB18C91ACE08664319
:1029C000360CB64493B273431F0F1B01C01AB941B2
:1029D000130C73431F0B1B05C01AB941860D8F02E0
:1029E0003E436643360C092D24DB520A7243801A9B
:1029F0007703460A6643360C16235B1BDE40DF4036
:102A0000BF1964466643821B7046043506330100D5
:102A1000D940A840C01900D30131A24206D20023F8
:102A2000F0BD0000000000D0FFFFFFFF121B0130CF
:102A3000F3D3F1E709277F1BFE406446A2B272433D
:102A4000801A00D20139220C7243130C1204821A2C
:102A500099410B007046043513370100F940A84036
:102A6000801900D30131002B02D1A2420AD2F0BD5D
:102A7000013000D30131121BFAD2013BF8D1A2423E
:102A800000D2F0BD013000D30131121BF7E7F0B5E1
:102A90001C0C00D080E00CB400251C0A04D11B02E1
:102AA000160E3343120208351C0B04D11B01160FFE
:102AB0003343120104359C0B04D19B00960F334322
:102AC00092000235DC0B02D192185B4101351C00EB
:102AD000971864410134464F7C66464C3C660E0CA8
:102AE000FFE7FFE7FFE7C0463C6F6643360C77031E
:102AF000BE4697B27743C01B00D20139C01B00D23B
:102B000001399FB27743C91BC91B170C77437E0459
:102B1000FF0B801BB941CE086643360C0C2D33DB0E
:102B2000B644120B1F053A431B0B97B27743C01BE9
:102B300000D201399FB27743C91B170C77433E047B
:102B40003F0C801BB941860D8F023E436643292707
:102B50007F1BFE400C3D7746AF40BF1930BCA2B290
:102B6000ABB272437343801A9941220C7243130C27
:102B70001204801A994102000B000137001BA94181
:102B8000F9D2781E0021F0BD0C277F1BFE4077464E
:102B90007F0BAF40FF19E0E700245D1C07D0144F06
:102BA0007D663966FFE7FFE7FFE7FFE73C6F95B219
:102BB0009EB265436643401BB141150C1E0C654334
:102BC000664336042F0C3E432D04401BB14199420D
:102BD00004D202000B0020000021F0BD01D1904280
:102BE000F7D3801A994101349942F2D3F6E70000F5
:102BF000000000D0FFFFFFFF48404140484018B4AC
:102C00001B4B5B68FC46019308BD04DFD32E00100C
:102C100018B4174B1B68FC46019308BD00DFDD2E7E
:102C200000109446134A926F920809D2624618B473
:102C30000F4BDB68FC46019308BD0CDF953100109B
:102C40000C4AF0B5146E556E576F166F6246FFF75B
:102C5000EEFF084A1466556657671667F0BD18B44C
:102C6000034B9B68FC46019308BD08DF3930001018
:102C7000D41D0020000000D0FFB55040424050401D
:102C800059404B40594000E0FFB5154F4C00640DD2
:102C900003D0BC4204D10C0314D80020090D09054F
:102CA0005C00640D03D0BC4204D11C030AD800228E
:102CB0001B0D1B0501264B4009D44B4003D58B420D
:102CC00000D18242FFBD9942FCD19042FFBD0B432F
:102CD000DB1803431343F5D0C9434918FFBD000077
:102CE000FF07000000B5FFF7CFFF804100BDC046E1
:102CF00000B5FFF7C9FF01D9002000BD012000BDCC
:102D000000B5FFF7B9FF01D9002000BD012000BDCB
:102D100000B5FFF7B1FF804100BD012040054A002A
:102D2000121804D85A00121801D800207047012048
:102D3000704700000021002805D17047C1174840A6
:102D4000401AFAD0C90713B5064B1B6898470CBC4C
:102D5000441CA2401005120B0349091B0905194325
:102D6000114310BDD41E00201F04000010B54C00FC
:102D7000620D8023D218DB00D21A5B057E2A10DD9B
:102D80009E3A13DACC170903490819435242D1403D
:102D9000640001341532202A05DAD040084360432C
:102DA00010BD002010BD0846604310BDC80FC018FC
:102DB000013810BD18B4044B5B6AFC46019308BD92
:102DC00024DF453300100000D41D002070B513230C
:102DD0001C78012C12D0012C12DC214B214A936467
:102DE0002148FFF76DFB214B186070BD1C491D4A3F
:102DF0009800815001331F2BF8D9ECE70023FAE744
:102E00001B48FFF765FB05001A48FFF761FB023816
:102E100003789B007F2B09DD12488022290000F0F7
:102E2000AFFB022C08D0022CDADCD6E7124B134A97
:102E30001348332101F086FC124B1A88B5231B027C
:102E40009A4209D1104B1A88104B9A4204D1104B68
:102E50001A88104B9A42E6D00020FEF7BFF8C04611
:102E6000992E0010D41D00204C330000D41E0020E9
:102E7000534400005346000000820010948200106A
:102E80004482001054380000D83800004946000041
:102E90009C3800005946000007B56046002800D164
:102EA00000BE01880A0A0230DF2AFAD1C9B28208BC
:102EB00004D3028840880004104300E00068024AFE
:102EC0005050039007BD0000D41D00200FB403BC78
:102ED0000CBCF0B50124E407634000E0F0B50C0D34
:102EE000CF0F661E3605891B640503D3C9434042D4
:102EF00000D30131640D03D0661CF60A07D0E41B31
:102F000000207F00791C89078912803C24031D0D55
:102F1000DF0F6E1E36059B1B6D0503D3DB4352424C
:102F200000D301336D0D03D06E1CF60A07D0ED1BE4
:102F300000227F007B1C9B079B12803D2D032F1BD3
:102F4000661B58D4A446202E46DA20371400BC4015
:102F50001D00BD40F24033412A4380185941CB0F38
:102F600005D0C943C04300226442504151416246EA
:102F70004D0D28D10D0D07D100281FD02419404137
:102F80004941013A0D0DF9D0640006D3013000D358
:102F90000131002C01D140084000013A0BD4941CAF
:102FA000E40A04D112051144DB071944F0BDD90726
:102FB000204B194300E0D9070020F0BD0029DDD1E6
:102FC000002CDBD1F0BD0132C6074008CD072843F5
:102FD0004908002EE1D0D9E73C2E29DA203E4037BF
:102FE0001400BC4000D00124F24014431A00BB403E
:102FF0001C43D317ACE7AC46202F08DA2036040078
:10300000B4400D00B540F84039412843A5E73C2FB6
:103010000CDA203F40360400B44000D00124F840D0
:1030200004430800B1400C43C117EAE7100019003F
:10303000002494E70000F07FF0B50C0D661E360505
:10304000891BE60A6405640D02D0651CED0A04D0F4
:10305000002001210905803C2403A4461C0D671EA5
:103060003F05DB1BE70A6405640D02D0651CED0A11
:1030700004D0002201231B05803C240377406444D4
:1030800097B484B296B27443070C7E43150C6F4319
:1030900080B26843361802D3012000043F18300480
:1030A000350C00197D41844688B29AB250430C0C0D
:1030B00062431F0C7C438EB27E43921902D30126D9
:1030C0003604A4191604170C3618674101BC81B2E6
:1030D0009AB25143040C62431B0C5C4380B25843C8
:1030E000121802D30120000424181004130C4018F5
:1030F00063412D185E410020474106BC88B293B25F
:1031000058430C0C6343120C544389B251435B186F
:1031100002D301210904641819041A0C0918624128
:103120006D1856410020474118BCF902720D114339
:10313000F0026A0D1043ED020A0D03D16D194041F2
:103140004941013B124E9B1B7600B3420ED26D00EB
:1031500007D30130002671416646354301D140084E
:1031600040001B05C918E4072144F0BD0BDA013308
:1031700006D1013004D101314F0D01D04908F2E7E9
:10318000E1070020F0BD013631050020EBE700002B
:10319000FF030000F0B51C0D671E3F05DB1BE70AAF
:1031A0006405640D02D0661CF60A04D000220123D7
:1031B0001B05803C2403D0252D060026F6432E66F1
:1031C0001E096E66CE0FF619B44649004F0D02D0A7
:1031D0007E1CF60A03D000200021403F3F033E1B27
:1031E000B600B444013F7F05C91B49082E6F013664
:1031F00076089C02950D25437543ED137543AD1379
:1032000001356D10F603761B0CB4CC02450D2C4332
:10321000A2B2B3B25A43270C7B43350C6F43A4B21E
:103220006C431B1902D3012424043F191C041D0CF8
:10323000A4187D4124196D41009A91B2ACB261434A
:10324000170C7C432B0C5F4392B25A43A41802D351
:1032500001221204BF182204230C52187B41019C46
:103260006C431B19520ED9010A434401A01A81B2C2
:10327000B2B2514303145A43360C734387B27743B7
:10328000D617D21900277E4136049B191704160C55
:103290007F185E417316ED18F301002680337541E7
:1032A000A90F06D16400690AE8055B0A184309D230
:1032B0002FE00422944480337541A90AA8059B0A93
:1032C000184326D3404149412404009A019B0D0034
:1032D0005543641B4343E41A95B286B27543170CF9
:1032E0007E43030C5F4392B25A43B61802D30122C5
:1032F0001204BF183204330C52197B4152429C41D4
:10330000002C02D40022013051414008CA0710436A
:10331000490802B06246D7079210084BD218084BF2
:103320009A4203D212058918C919F0BD0020002A5B
:1033300001DC3900F0BD01331905F5E7FD0300009C
:10334000FE070000002200B5203200F004F808005B
:1033500000BD000000220B150AD410B5944600F001
:1033600031F81414013400DA0021CB17144C204733
:103370000020002170476244343A0CD40C2A07DA4A
:1033800004009140904052422032D440214310BD6D
:10339000D843D94310BD203207D40C469440524242
:1033A00020321141D040204310BD0800C9172032FF
:1033B00003D452422032104110BD1800190010BD34
:1033C000773300100A0DCC0F531E1B05C91A520586
:1033D00003D3C943404200D30131520D03D0531CE3
:1033E000DB0A07D0121B00206400611C89078912C8
:1033F000803A1203014BD21A70470000FF0300000D
:1034000051434343C9188C46110C83B24B4310B44B
:10341000040C614392B280B2504362431C041B0C03
:10342000001910BC59411304120CC01851416144D9
:103430007047000070B513231E782A48FFF748F83C
:103440000500012E11D0012E09DDAB1E1B789B005B
:103450007F2B40DD24488022290000F091F823488A
:10346000FFF72EF8224B186070BD1F485422290028
:1034700000F086F81F4B1A881F4B9A421CD1A723D5
:103480009B011A881D4B9A4216D11D4B1A881D4B61
:103490009A4211D11C4B1A8894239B019A420BD15A
:1034A0001A4B1A881A4B9A4206D11A4B1A681A4BB1
:1034B0009A4201D1152307E01848FDF78FFD184CFB
:1034C000094A99008C5001331F2BF8D9144B064A36
:1034D0001362D361B7E7134B134A1448422101F03A
:1034E00031F9C04653460000D81E00204C3300007E
:1034F000D41E0020EE290000C40F0000C20D000001
:10350000962B0000C0B50000182B0000CC2A00004C
:1035100010B50000FC2C000051ED8764EC85001014
:1035200031350010A88200102C830010DC820010BE
:1035300007B56046002800D100BE01880A0A0230A3
:10354000DF2AFAD1C9B2820804D302884088000475
:10355000104300E00068024A5050039007BD00008D
:10356000D81E002001480421014B1847100C0020F0
:10357000E1240010014B1B6818470000100C0020CC
:10358000014B5B6818470000100C0020704710B515
:10359000002802D00B684968984710BD0100002040
:1035A00007E083001B185B00501C08601078C018EF
:1035B00030380A681378303BDBB2092BF1D97047F9
:1035C000F0B5DE4657464E464546E0B583B09346D5
:1035D0001F000C9B9A460D9C0E9B99460F9B9B07C8
:1035E00003D0B8460F00060022E00192A3468846A9
:1035F0004E46B9460700B44207D2551C4B464146D9
:103600002020B84701342A00F5E73D004F465C46CC
:10361000019B9B46B1464646B84637002E0007E060
:10362000013C551C5346185D43463900B0472A00FB
:10363000002CF5D135003E0047460F9B9B0707D471
:10364000100003B0F0BCBB46B246A946A046F0BD90
:10365000B0464E46B9462F005D46531BB342EFD2EB
:10366000541C4B4641462020B8472200F5E7F0B5F0
:10367000CE46474680B585B0944698460C9D0D9C35
:103680000EAB1B789946109A119B129EB7071CD45B
:10369000002B0CD0F7070AD54F46002F02D10C376C
:1036A000374204D0013B02E030272F5501349442C9
:1036B00001D21F2CF8D9F70707D59C4205D21F2C41
:1036C00003D830272F550134F5E7F70612D57705D3
:1036D00005D4002C03D0944221D09C421FD00F9AD5
:1036E000102A32D00F9A022A37D01F2C0AD8302243
:1036F0002A5501341F2C05D84A46002A33D02D22E2
:103700002A5501340396029301940095434662467C
:10371000FFF756FF05B0C0BCB946B046F0BD621E0B
:10372000012C10D00F9F102F0BD014000F9A102ACD
:10373000D8D1B206D6D51F2CD4D858222A55013458
:10374000D3E7023CCBE71400C9E7B206EED41F2C46
:10375000ECD878222A550134C7E71F2CD2D8603222
:103760002A550134C1E7720703D52B222A550134AB
:10377000C8E73207C6D520222A550134C2E7F0B582
:10378000DE4657464E464546E0B593B081468A46EA
:10379000089209931CAB10CB1B789B461E9D219B66
:1037A0009846002C03D1102342469A43904680232A
:1037B000DB0046461E4042461A4212D0002C22D060
:1037C00000260EE03033D9B2771C0AAB9955290098
:1037D0002000FEF7D9FFAC4216D31F2F14D83E00AD
:1037E000040029002000FEF7CFFFCBB2092BE9D956
:1037F0004246920605D54121C918C9B20A39C9B253
:10380000E2E76121F8E7270043460693209B0593F2
:103810001F9B049303955B46029301970AAB0093A9
:10382000099B089A51464846FFF721FF13B0F0BCA8
:10383000BB46B246A946A046F0BDF0B5DE465746A7
:103840004E464546E0B597B00A900B910C929A46C9
:10385000209B9946219F22AA13789B46249B09937B
:10386000259C289B98464A463A4302D110329343FE
:1038700098468022D20045461540434613420AD05E
:103880004A463A4341D000252E0053460D934D46FB
:10389000099B9A461BE02E0053460D934D46099B0B
:1038A0009A4614E03033DAB2731C99460EAB9A553F
:1038B0005246230028003900FEF7A4FFBC4226D858
:1038C00019D04B461F2B1CD84E4605000F00524600
:1038D000230028003900FEF795FFD3B2092BE1D968
:1038E0004246920605D54122D218D2B20A3AD2B245
:1038F000DAE76122F8E7AA45E3D94E460D9B9A46DE
:1039000008E04E460D9B9A4604E0002602E04E4633
:103910000D9B9A4643460693279B0593269B04934B
:10392000099B03935B46029301960EAB00935346AB
:103930000C9A0B990A98FFF79AFE17B0F0BCBB4699
:10394000B246A946A046F0BDF0B5DE4657464E4603
:103950004546E0B591B0804689460C929A461A9C3D
:103960001B9D22002B0020002900FFF7D6F900281C
:1039700000D0ECE001225242D44B20002900FFF796
:10398000C7F9002800D0E2E001225242D04B2000CB
:103990002900FFF7A7F9002800D0D8E00022002373
:1039A00020002900FFF79EF9002800D0E4E00694EB
:1039B00007958023DB001E9A1A400D921E9A1A4228
:1039C00001D106231C930698079902000B00089268
:1039D000099303000A00024300D1D9E0080D400515
:1039E000400DBC4EB44660440A03120B1E00BA4B95
:1039F00013431F00FFF7A2F9B84AB94BFFF72FF99D
:103A0000B84AB94BFFF704F9089009910022B74B67
:103A100030003900FFF7F3F8B54AB64BFFF71FF94E
:103A200002000B0008980999FFF7F2F8FFF79EF9DA
:103A30008346FFF783F906000F00AF4AAF4BFFF74D
:103A40000EF90022AE4BFFF7E3F8FFF78FF908906D
:103A5000AC4AAD4B30003900FFF701F906000F000A
:103A60000898FFF76BF9A94AA94BFFF7F8F802008D
:103A70000B0030003900FFF7C2F806000F0002000B
:103A80000B00FFF7ECF80A900B91089BA14A9446B3
:103A9000634400210022089109921B050993002329
:103AA000089332003B0030003900FFF7B1F80E9068
:103AB0000F9132003B0000208021C905FFF79FF8DD
:103AC00006000F000022944B0A980B99FFF7A9F803
:103AD0000022924BFFF79CF802000B000A980B990A
:103AE000FFF79FF800228E4BFFF792F802000B00C1
:103AF0000A980B99FFF795F802000B003000390087
:103B0000FFF786F802000B000E980F99FFF789F86F
:103B10000022714BFFF77CF8089A099BFFF79FF88A
:103B200006000F0008960997069A079BFFF7F0F822
:103B300000282FD001235B429C46E3440022774BB0
:103B400030003900FFF76DF80890099122E01E9BC4
:103B500004931D9B03931C9B029300940195534671
:103B60000C9A4946404600F0FFF811B0F0BCBB4645
:103B7000B246A946A046F0BD002100220691079258
:103B8000069480231B069C46AC446346079310E7CB
:103B900000239B465B466333C62B20D804261E9B1E
:103BA0001B0528D5089A099B190011430FD05D4ABF
:103BB0005D4B06980799FFF7A3F800287AD00022FA
:103BC0005A4B06980799FFF78DF8002872D01C9B76
:103BD0005B4506DD5A469B1A013B1C9303E0052614
:103BE000DDE700231C938023DB001E9A1A431E92FC
:103BF000002600239B461D9B9E4265D29F1B0223ED
:103C00001E9A1A400A921E9A134202D0002E00D029
:103C100000275B46002B07D0089A099B0698079956
:103C2000FEF7FFFF069007910022002320002900E5
:103C3000FFF758F8002800D07CE03D4B1E9A134057
:103C4000049303971C9B0293069B079C009301948B
:103C500053460C9A4946404600F086F8002E00D1A3
:103C600083E71E9B9B0671D54525441C53460200E5
:103C700049462800C0475A46D317D2185A40052350
:103C80000593013E0496002303930A3302935B4697
:103C9000DB0F019300925346220049464046FFF74E
:103CA0006EFD0A9B002B00D15FE7020047460C9E89
:103CB0001D9D53E01C9B002B9DD00D9B002B9AD08B
:103CC0001C9B013B1C9396E7002798E7FFFFEF7FC3
:103CD000FFFFEFFF01FCFFFF0000F03FFB799F506B
:103CE0001344D33FB3C8608B288AC63F0000F83F17
:103CF00061436F63A787D23F71A379094F930A404D
:103D00000000E03F1655B5BBB16B0240EF39FAFE3B
:103D1000422EE63FFF03000000002C40000024403C
:103D2000000018402D431CEBE2361A3F80842E41E0
:103D3000FFF7FFFF069C079D220029008020000658
:103D4000844661440B000692079376E765258CE76D
:103D5000541C534649462020B8472200931BAB42CF
:103D6000F6D3100001E7C046F0B5DE4657464E4692
:103D70004546E0B595B00690079193469946209F39
:103D80001E9A1F9B10001900FEF7C7FF002831D1B3
:103D900001225242BF4B1E981F99FEF7A3FF002835
:103DA00037D101225242BC4B1E981F99FEF7B0FF3B
:103DB00000283DD10022B94B1E981F99FEF7A8FF9D
:103DC000002850D10022B64B1E981F99FEF78AFF9B
:103DD000002848D1002200231E981F99FEF782FF79
:103DE000002850D100239846229B5B0500D4B6E002
:103DF000002458E0229B0393219B02930323019309
:103E0000A84B00934B465A4607990698FFF7D8FBF4
:103E10000EE1229B0393219B029304230193A24B67
:103E200000934B465A4607990698FFF7C9FBFFE0F7
:103E30000423229A1A4022990B4210D09B4B002A4D
:103E40000FD00422229903912199029101920093AB
:103E50004B465A4607990698FFF7B2FBE8E0944BA9
:103E6000EDE70322EEE7229B0493219B0393029745
:103E70001E9B1F9C009301944B465A460799069837
:103E8000FFF762FDD4E01E9A1F9B00200021FEF781
:103E9000B6FE1E901F9101239846A5E70CAB302279
:103EA0001A55013F01341F2C01D8092FF6D81E984E
:103EB0001F99FEF75BFF0500FEF740FF02000B00B5
:103EC0001E981F99FEF79BFE7A4BFA009B181A6802
:103ED0005B680A920B93FEF7C2FE08900991FEF709
:103EE00069FF0600FEF726FF02000B0008980999FB
:103EF000FEF785FE0890099100226F4BFEF708FF40
:103F000000282ED001363000FEF714FF02000B000F
:103F10000A980B99FEF7ECFE002801D00135002627
:103F2000002F2CD12800FEF709FF02000B001E987D
:103F30001F99FEF764FE06000F0000225E4BFEF79D
:103F4000D1FE002846D100225B4B30003900FEF73D
:103F5000DFFE00283ED1EB073CD501353AE00627CD
:103F600046E70022544B08980999FEF7BBFE00284B
:103F7000D6D1002E01D0F307D2D50136D0E7AA461C
:103F80001F2C11D8013F0A213000FEF7FDFB651CF4
:103F900030310CAB19550A213000FEF7F5FB092E24
:103FA0000ED906002C00EBE755461F2C0CD87B1EC3
:103FB000002F09D00CAA302111551F000134F4E75D
:103FC0002B0055461C00F0E71F2C03D80CAB2E220B
:103FD0001A5501341F2C10D80A212800FEF7ACFB1B
:103FE000661C30310CAB19550A212800FEF7A4FBE2
:103FF000051E01D03400EDE734000323229A13405C
:10400000012B1CD01F2C06D84346002B32D00CAB02
:104010002D221A550134229B0393219B0293019474
:104020000CAB00934B465A4607990698FFF7C8FA1F
:1040300015B0F0BCBB46B246A946A046F0BD219BD8
:10404000002B13D04346002B02D10C3313420FD068
:10405000219B013B2193190003E00CAB30221A5540
:1040600001348C42CED21F2CF7D9CBE72199F8E747
:104070002199F6E7229B5B0704D50CAB2B221A553E
:104080000134C8E7229B1B07C5D50CAB20221A556B
:104090000134C0E7FFFFEFFFFFFFEF7F65CDCD41AC
:1040A00065CDCDC1E8830010EC830010DC830010E7
:1040B000E4830010908500100000E03FF0B5DE467C
:1040C00057464E464546E0B593B0824688469346ED
:1040D0001193002900D106E300255646119B18785C
:1040E000002800D102E3252809D06C1C5B462A0079
:1040F0004146B047119B013311932500EEE7013390
:104100001193002720E001231F4301321192012463
:1041100018E002231F4301321192012412E004230C
:104120001F430132119201240CE008231F43013286
:104130001192012406E010231F4301321192012441
:1041400000E00024002C09D0119A1378203BD9B24A
:104150001029F6D88B00C449CB589F46119B1A787A
:104160001300303BDBB2092B10D92A2A13D00B9451
:10417000119B1A782E2A1ED0119A1378683BD9B257
:10418000122959D88B00B949CB589F4611A8FFF77F
:1041900005FA0B90ECE71C9B1A1D1C921B68002B68
:1041A00004DB0B93119B01331193E1E702221743C8
:1041B0005B420B93F6E78022D20017435A1C119200
:1041C0005A781300303BDBB2092B0BD92A2AD3D102
:1041D0001C9B1A1D1C921C68002C08DB119B0133D0
:1041E0001193C9E711A8FFF7D9F90400C4E7002427
:1041F000F4E780235B003B43511C119151786C29FB
:1042000001D01F0018E0C0239B001F43023211920F
:1042100012E080233B43511C11915178682901D051
:104220001F0009E0C0231F430232119204E08023E3
:104230005B001F4301321192119B1878672816D832
:10424000252826D30300253BDAB2422A21D8930041
:10425000874AD3589F4680239B001F430132119207
:10426000EAE780235B001F4301321192E4E77828DC
:104270000FD869280DD30200693AD2B201239340C6
:104280007C4A13420FD11A0600D507E25B0500D520
:1042900094E16C1C5B462A004146B047119B0133F8
:1042A000119325001AE778280AD062283AD06F289F
:1042B0003BD058283CD010239F43063B9C4601E04E
:1042C00010239C46582836D0692803D0642801D092
:1042D0000C2297437A0501D50122974369282DD0F6
:1042E00064282BD0BA0500D5A2E0FA0500D5C3E0BA
:1042F0007A0600D4D5E01C9A111D1C911168FF228A
:104300000A4005970B9B0493039463460293002392
:10431000019300925B462A0041463000FFF72FFAD6
:1043200005002AE002239C46CCE708239C46C9E707
:1043300010239C46C6E720221743C5E7BA0520D4C0
:10434000FA0550D47A0666D51C9A111D1C91116885
:10435000FF220A40D0171118414005970B9B049388
:10436000039463460293D20F019200915B462A00A8
:1043700041463000FFF703FA0500119B013311930A
:10438000ACE61C9A073207218A43110008311C91C0
:10439000116853689946DB170C930D930C9A0D9B8B
:1043A000100048400E904A4653400F930E980F99C4
:1043B0000C9A0D9B801A99410E900F9108970B9BB8
:1043C0000793069463460493002305934B46DA0F44
:1043D0000292009001915B462A0041463000FFF7AF
:1043E0002CFA0500C9E71C9A111D1C911268D01700
:1043F0001118414005970B9B049303946346029365
:10440000D20F019200915B462A0041463000FFF72F
:10441000B6F90500B1E73A0605D51C9A111D1C91A5
:104420000023D25E96E71C9A111D1C91126891E739
:104430001C9A073207218A43110008311C91089702
:104440000B9B079306946346049300230593029302
:1044500053681268009201935B462A00414630007F
:10446000FFF7EBF9050088E7F483001038840010AB
:1044700084840010419000001C9A111D1C91059726
:104480000B9B0493039463460293002301931368E8
:1044900000935B462A0041463000FFF770F90500A3
:1044A0006BE73A0606D51C9A111D1C91126812047E
:1044B000120C26E71C9A111D1C91126821E7462850
:1044C00019D01C9B0733072293431A0008321C9211
:1044D00004970B9A039202941A685B680092019306
:1044E0005B462A0041463000FFF73EFC0500119B69
:1044F00001331193F2E520231F43E2E7672801D03F
:10450000472802D180231B011F43452801D047289B
:1045100001D120231F431C9B0733072293431A001A
:1045200008321C9204970B9A039202941A685B68F3
:10453000009201935B462A0041463000FFF704FADF
:104540000500119B01331193C8E502231A003A407C
:1045500091463B421DD001241C9B1A1D1C926F1CCE
:1045600018785B462A004146B0474B46002B14D1D1
:10457000119B013311933D00B0E5571C5B4641464A
:104580002020B04723003A005C1C9D42F5D815005E
:10459000E2E701232A000B9DF6E73A00B1460B9EA5
:1045A00006E0571C5B4641462020C8472C003A00D5
:1045B000651CA642F5D817004E46D9E71C9B1A1D6C
:1045C0001C921B689A46002C25D101225242534668
:1045D00001E001330A001978002902D0511E002A97
:1045E000F7D152469B1A8022D200390011408946E9
:1045F000174202D0A34200D9230002221100394001
:1046000010913A4209D02A00250057469A463300B5
:104610004E46994621E02200D9E72A004546A046A9
:1046200006E0541C5B4629002020B0473B002200D6
:104630005F1C0B999942F4D84446A8463B002500DC
:1046400057469A4633004E46994606E01D0001370C
:10465000541C5B464146C84722003878002804D0E5
:10466000002EF4D06B1E002DF0D1150053464E469F
:10467000109A002A03D1119B013311932EE50B9F51
:104680002A0006E0551C5B4641462020B047230027
:104690002A005C1C9F42F5D81500ECE721233B4320
:1046A0001C9A111D1C91126805930823049303940E
:1046B000083302930023019300925B462A0041468F
:1046C0003000FFF75CF80500119B0133119305E5FD
:1046D0006C1C5B462A0041462520B047119B0133E4
:1046E00011932500FAE40B4B9A46F5E4B2465D457A
:1046F0000DD35B465A1E5B4641460020D04728003A
:1047000013B0F0BCBB46B246A946A046F0BD2A0095
:10471000F1E7C0468D35001000B585B002900391D9
:1047200001210448009313004A4202A9FFF7C6FC86
:1047300005B000BD8F35001000BEFDE710B5FFF7D6
:10474000FBFF000030B583B00D001900002A0BD02C
:10475000074B084C019200932B000200200000F050
:104760005FF90120FFF7E8FF034B1A00F1E7C046AD
:10477000E0850010F0850010EC85001010B5EFF317
:104780000583002B00D000BEFDF7FCFE034C01E0CA
:1047900008CC9847024B9C42FAD310BD1479001004
:1047A0001C79001010B50300080011001B68984721
:1047B00010BD0000F8B507000D001600437D002B6A
:1047C00002D0002400200CE0036811002800984764
:1047D0002DE03B7D10E03B68154802219847601CA6
:1047E0000134B44214DA002CF3DD2B19013B1B78A1
:1047F0000D3B5A425341DBB22A5D0A2AF0D1002B0D
:10480000EED1A042E7DA3B68211A28189847E2E780
:10481000B04203DA3B68311A28189847002E06DDAB
:10482000AD19013D2B780D3B5A4253413B75F8BD04
:104830002086001070B505000368002B16D00C4BC5
:104840001C6805E0290004C92000FFF7B3FF2469B4
:10485000002C09D02368002BF9D0064B1B68002BD5
:10486000F0D0A342F3D1EDE700232B6070BDC0462A
:10487000701900207819002070B505000C000B6835
:10488000802B05D023685A1C2260E418257170BD66
:104890000800FFF7CFFFF5E710B5FDF781FB074AEA
:1048A000002312184B41002B03DB054802F0ECFFFC
:1048B00010BD01225242034BF7E7C04640420F00B1
:1048C000580C0020FFFFFF7F10B5024802F0ACFF3C
:1048D00010BDC046580C0020F0B5CE46474680B506
:1048E00083B006000D0090461C00FFF7D5FF8146FF
:1048F0006B1C05D0002C08D0184F194B1C6807E022
:10490000300002F051FF0500F4E7164FF5E7246987
:10491000002C17D02368002BF9D0134B1B68002BF9
:1049200001D0A342F3D12A0031002000B84743460A
:10493000002BECD06B46D91D0A230B7001222000FE
:10494000B847E4E74B46002B05D1280003B0C0BCB4
:10495000B946B046F0BDFFF7B7FFF6E7B547001020
:1049600070190020A547001078190020094A01E0BD
:1049700010331A001368002B08D08342F8D10029A5
:1049800007D1036913600023036102E0002900D00E
:10499000106070477019002010B5064B1C6801E0CC
:1049A00098472469002C03D06368002BF8D1F8E7FE
:1049B00010BDC0467019002010B500F0C9F910BD37
:1049C00070B5050002F0F0FE040001230122010091
:1049D0002800FFF781FFFFF7DFFF200070BD000018
:1049E00070B5A2B004000E00FFF756FF05000023CB
:1049F00001930A483300220001A9FFF78DFE04004D
:104A000001A8FFF717FFFFF7C7FF002D02D1200015
:104A100022B070BDFFF758FFF9E7C0467948001093
:104A20000FB400B583B004A901C90191FFF7D8FF05
:104A300003B008BC04B0184770470000014B0022C7
:104A40001A7070470D2000204B79FF2B0CD18B7909
:104A5000002B0BD1CB79012B0AD1082A0AD98A78ED
:104A6000054B1A70092000E0002070470020FCE789
:104A70000020FAE70020F8E70D2000200120704711
:104A800010B5012928D1117953791B020B43134921
:104A900009788B4201D000201FE05378012B03D00E
:104AA000022B12D0002018E09178D3781B02194312
:104AB000DB0507D5480A4A0A01231A407E3319400C
:104AC000FDF72AFD01204042F5E764220021002085
:104AD000FDF7CAFC012000E0012010BD0D200020E0
:104AE00000487047EC86001010B51400012910D161
:104AF0005378012B0FD1127963791B021343072BD3
:104B000001D0002006E0054A9F33210001F062FB3E
:104B100000E0012010BD0020FCE7C04644860010E4
:104B200001230370004870472486001010B50A78EE
:104B30004B781B0213438A7812041A43CB781B0666
:104B400013439622D200934200D010BD01200022D0
:104B500011004042FDF7E0FC024B1860024B196067
:104B60007047C046101900201419002010B5FDF739
:104B700017FA0E4A002312184B41002B12DB0C4887
:104B800002F082FE00280CD001200021404201F0FA
:104B9000EDF9002001F08CFC0028F5D1044802F06A
:104BA00043FE10BD01225242024BE8E740420F0093
:104BB000DC1F0020FFFFFF7F10B5024B1878FCF7C9
:104BC00033FB10BD0E2000200268EFF3108172B697
:104BD0001368002BFCD0BFF35F8F4160704700006B
:104BE00070B5144B1B68002B1AD0124C2000FFF735
:104BF000EBFF114B00221A7021686368BFF35F8FCF
:104C00000A6083F31088002400250C4B1878FCF709
:104C1000E7FA002808D1002400252000290070BDF3
:104C2000FA24A4000025F0E7044B1878FCF7FCFAFE
:104C3000F3E7C046B41D00200F2000200E20002006
:104C4000F0B585B0060014001D000CAB1F78FDF711
:104C5000A7F922002B0012184B41002B09DB029709
:104C60000B9901910A9900913000FCF779FF05B08A
:104C7000F0BD01225242014BF1E7C046FFFFFF7F2A
:104C8000F0B5C64600B584B00500884616001F0082
:104C90000AAB1C78FCF7FCFE0294019700962A00F0
:104CA0004346FFF7CDFF04B080BCB846F0BD00001E
:104CB00010B582B02048002102F0D6FD00281AD19C
:104CC0001E4B1B68002B14D01C4C2000FFF77CFFF0
:104CD0001B4A137801214B40DBB20121117021687E
:104CE0006268BFF35F8F0020086082F31088002B9A
:104CF00017D102B010BD01200021404201F036F969
:104D0000002001F0ADFB04000B4802F08DFD002CEB
:104D1000EFD00C4B1B68002BEBD00B4A1068984768
:104D2000E7E70A4A012300930023FA2080000021CC
:104D3000FFF7A6FFDDE7C046DC1F0020B41D002002
:104D40000F2000201019002014190020E14B001042
:104D500010B582B0D0231B061C68FCF799FEFCF747
:104D600079FFA04230D1274B1B780021002002F0B0
:104D700069F8254B1B68002B2CD00120FCF720FC88
:104D8000224C20702249FF231840FCF76BFA207850
:104D90000121FCF73FFA0520FCF756FA041E1DD04E
:104DA0000120FCF799F901001A4B1800FCF768FC88
:104DB000194900220520FCF77FFA18480121FFF766
:104DC000D5FD200002B010BD154B164A1648C12172
:104DD000FFF7B8FC0C48FCF711FCCEE70D480822A1
:104DE0000021FEF7C7FB114A012300930023FA209C
:104DF00080000021FFF744FFC043C40F0028E0DA21
:104E0000DBE7C046488F0010DC1F00200E2000208A
:104E1000B14C0010B41D0020B94B0010200C002034
:104E2000108700108087001018870010E14B0010D9
:104E300010B5002001F0F8FA10BD000070B50500B3
:104E40000C00FFF7F5FF002834D0002001F008FB2C
:104E5000002832D0FDF7A4F81B4A002312184B415A
:104E6000002B19DB194802F00FFD002828D0FFF7AE
:104E7000DFFF002804D0002001F0F2FA00280FD153
:104E800001200021404201F071F8032464420F48E0
:104E900002F0CAFC200070BD012252420C4BE1E737
:104EA00022002900002001F0E7FA041EEFD10324BC
:104EB0006442ECE703246442ECE703246442E9E73C
:104EC00003246442E6E7C04640420F00DC1F002096
:104ED000FFFFFF7FF0B5C64600B580460C00FDF72A
:104EE0005FF8314A002312184B41002B07DB2F4893
:104EF00002F0CAFC002806D180BCB846F0BD0122F1
:104F000052422B4BF3E7FFF793FF002849D1294B7F
:104F10000020002118605960244802F085FCEBE76E
:104F200001200021404201F021F8002001F0C0FAE8
:104F3000FFF77EFF0028EFD0002001F03BFB0028A8
:104F400020D0A542E8DA661B002001F033FB020006
:104F5000864200DC3200002AE2D043465919002084
:104F600001F004FB060001200021404200F0FEFF9A
:104F7000002001F09DFAAD19FDF712F80D4B1860F5
:104F80005960DEE7FDF70CF80A4B1E685F680A4AB5
:104F9000002392197B419942BED8D2D19042D0D9F8
:104FA000BAE70025CDE7C04640420F00DC1F0020D5
:104FB000FFFFFF7F4012002020A10700004870473C
:104FC0002888001000487047D487001010B50400EE
:104FD000154B1B78002B0ED0002C11D1134B144A0B
:104FE0005A80012301335B009BB21048C02292001B
:104FF0001343038010BD0C48112100F025F8EBE7A6
:10500000052C0ED80B4BA400E4580023122BE9D832
:10501000E15C0029E6D00133044A58008152DBB23A
:10502000F4E70020E6E7C046E81F0020481900200A
:1050300009040000BC87001010B5024800F032F8E7
:1050400010BDC046CC1D002010B5002901D00023A2
:105050000AE0104B104A11483531FFF773FB00226C
:105060000DE03732C25401334A1E9A420ED90F2B3B
:105070000CD85A080A4CA45CDA07F0D40422144174
:105080000F222240092AECDC3032EBE7C018002363
:10509000037010BD3C8800108C88001044880010FC
:1050A000CC1D002070B588B0040004AD0026049625
:1050B0000922002105A8FEF75DFA009609220021C9
:1050C00001A8FEF757FA4B232B700D2269462800E2
:1050D00002F0A2FB002304E05A1D69468A5CE254F8
:1050E0000133072BF8DD08B070BD000070B57F23D9
:1050F0000340C509264C5E0076197601A419A070FC
:105100006842684160700020E0702183E276012DE2
:105110001DD0D8001F4A944660441D4A59004919C1
:105120004901521890601A4A590049194901521808
:10513000926800211160002B0FD1154A5B005B19AA
:105140005B01D31800225A60134ADA6070BDD800A0
:10515000124A94466044A060E5E7012D0BD0591E29
:10516000C9000F4A94466144094A5B005B195B0120
:10517000D2185160EAE7591EC9000A4A94466144B0
:10518000034A5B005B195B01D2185160DEE7C04641
:10519000941900208400105000011050800010501D
:1051A0000C0010500800105010B5038B3F333F2205
:1051B0009343C27E022A08D008490A68C260D31805
:1051C0000B60074A934202D810BD5B00F4E7054B21
:1051D000054A06485221FFF7B5FAC046981D00203F
:1051E000FF0F1050508A0010388B0010948A001066
:1051F000F8B57F250540C6096B009B195B010E4C75
:105200001C19FFF773FF002D00D1F8BD0A4B6D008C
:10521000AD196D015D19298B2000FFF7C5FFEB7EED
:105220009B06E968054A4A4013438022120613434D
:105230006A681360E9E7C046941900200000105026
:1052400010B504007F202040E4094000001940010F
:10525000024BC01800F026F910BDC046941900207A
:1052600010B5002804D101210520FBF7D3FF10BDA4
:10527000034B044A98210448FF31FFF763FAC04604
:10528000FC8A0010288B0010948A001010B50028AA
:1052900005D1002200218020FFF7D2FF10BD034B73
:1052A000034AA2210348FF31FFF74CFAFC8A0010A1
:1052B000188B0010948A0010024B80225202DA648C
:1052C0007047C0460020115070B5041E27D100F071
:1052D000C7F8164D0C23AB671549FF220520FBF7D5
:1052E000EBFF144840220021FEF744F90022402140
:1052F0000020FFF77DFF002240218020FFF778FF8C
:1053000002F0A2FA01232B6480239B05EB64902317
:10531000094AEA502000FFF7CFFF012070BD074B7C
:10532000074A64210748FF31FFF70CFA00001150CB
:10533000690400209419002010D00100FC8A00109C
:105340004C8B0010948A0010044B1970002904D073
:10535000034A902380218902D15070470520002004
:10536000002011500B785B0602D14B78052B00D042
:1053700070478A78014B1A60FAE7C0460000115066
:1053800010B5CA789207920F012A0AD088780B7953
:105390004979090219434905490DFFF729FF012001
:1053A00010BD0020FCE710B502F04EFA10BD000061
:1053B00010B50400080011001A00002C03D1FFF7FB
:1053C0003FFF012010BD034B034A812103488900A0
:1053D000FFF7B8F9FC8A0010088B0010948A0010BF
:1053E00010B57F23180008400B4205D1CB09012BD3
:1053F0000ED00222074B9A66C909400040184001AE
:10540000054BC01880221201002102F05DFA10BD88
:105410000122EFE7002011509419002010B57F22DF
:10542000100008400A4200D110BDC90940004018D0
:105430004001044BC0180023C3700022024902F04F
:1054400043FAF1E794190020FFF7FFFF04E00A7820
:105450000270013101301A00531E002AF7D1704743
:1054600010B580235B040A4A13600A4A13600A4B92
:105470001A6880235B049343F9D1802252010021F2
:105480000648FEF777F8064B09225A6710BDC0465A
:1054900000E0004000F0004008C000400000105054
:1054A0000000115070B504000D001600837E002B23
:1054B00017D1A6820023E3820133A3762561200061
:1054C00002F0A2F9002804D00C4A9023802189021E
:1054D000D150200002F0F0F900280AD001232377F0
:1054E00070BD81780648FFF79BFA200002F0DCF9D6
:1054F000DFE7200002F0D0F9F2E7C04600201150AB
:10550000348C001070B50500002408E09B1A5B0184
:10551000164A9B18DB68280098470134E4B2144B04
:105520001A782300511CA1420DDBA242EED9114B87
:105530001B6862019B18002BECD10F490F48104AE1
:10554000FFF76EFA10E00F4C542200212000FEF706
:1055500011F8201D1022FF21FEF70CF82000143056
:105560002022FF21FEF706F870BDC046F48D001022
:105570000420002078120020C08D00107C8C0010C8
:1055800025020000281400200268EFF3108172B693
:105590001368002BFCD0BFF35F8F4160704710B5DC
:1055A000FFF7B0FF00F062FE10BD70B505000C0003
:1055B0001600486900F064FE63693200012128008A
:1055C000984770BDF0B5DE4657464E464546E0B5B5
:1055D00083B082460139C8B2FFF7F4FC002803D03B
:1055E00043789946022B0CD056495748574AFFF743
:1055F00017FA002003B0F0BCBB46B246A946A0464D
:10560000F0BDC5796C110122514B14402401197869
:105610001026B14321431970AD112A405201C9B27D
:105620002024A1430A431A70060009368278C37801
:105630001B02134383469B444B460193370066E0AD
:10564000FB7899463A78BF1868E03E493E48414A9F
:10565000FFF7E6F90020CDE7009AD31A5B013E4E32
:105660009E1933692200390050469847082801D90D
:10567000844216D20135EDB2384B1B7800955A1C86
:10568000AA423EDBAB42E7D9354B1B686E019E193F
:10569000002EE6D12B492C48324AFFF7C1F90020F1
:1056A000A8E73400009E00904B46012B11D000204B
:1056B000494681421BD9BB781B18DBB2244AD21859
:1056C0001279FF2A0CD1224AD3181D710130C0B2C1
:1056D000EFE72169244A9142E9D1019B9946E6E727
:1056E00018491948214AFFF79BF9002082E7204812
:1056F0002B00009C2200390001F07CFCA44667448A
:1057000000E02E00154B1B7801339E420FDC5F45F5
:1057100015D27B780B2B93D0012399467A78042AF3
:1057200093D15B46DA1B93B200251C00A4E78522C7
:1057300004490548D200FFF773F900205AE7012019
:1057400058E7C046948D00107C8C0010D6030000F2
:1057500028140020F1030000F48D00100420002024
:1057600078120020FA0300003167001019040000CD
:105770003C1400207047704700207047002070479D
:1057800070B505000C00CB7888780F2B53D89A00A1
:105790002E498A589746FFF711FC021E05D01223A6
:1057A0002100280000F016FD46E0294929482A4A30
:1057B000FFF736F900203FE0FFF792F9021E3CD0D8
:1057C0008178C3781B020B432100280000F002FD02
:1057D00032E0022B0CD0FFF7D1FF021E2FD09178C0
:1057E000D3781B020B432100280000F0F3FC23E0D8
:1057F000FFF7E8FB021EF2D115491648174AFFF7DA
:105800000FF9002018E02379617909021943FFF7A5
:10581000DDFB021E15D003782100280000F0DAFC21
:105820000AE0FFF7A9FF021E0DD00378210028002F
:1058300000F0D0FC00E0002070BD0020FCE700205C
:10584000FAE70020F8E70020F6E7C046948C001045
:105850007C8D00107C8C00103A0400006104000074
:105860007047704770477047024B5878431E984105
:10587000C0B2704728140020024B18784007C00FB0
:105880007047C04628140020034B1878FF38431E89
:105890009841C0B27047C046540C0020F8B50500CE
:1058A0000F00FFF7F1FF061E48D1002F21D02E4830
:1058B00054220021FDF75EFE2C4B00221A702C4C66
:1058C0002000FBF79BFE2B4B1C602B4C2000FBF7B2
:1058D000E1FE143C200001F024FF284B1C60284B03
:1058E000002B04D02748FFF71BF9274B1860002432
:1058F00010E0E922254926485200FFF791F81DE003
:105900009B1A5B01234A9B185B68002B10D09847B9
:105910000134E4B21B4B1A782300511CA1420FDB67
:10592000A242EDD9184B1B6862019B18002BEBD1EA
:10593000F822164916485200FFF772F83000F8BDF9
:10594000154B1D7039002800FFF7BEFC061E03D062
:105950002800FFF785FCF1E7FC220C490C485200B7
:10596000FFF75EF8EAE7C046281400200620002072
:10597000201400207C1400204C0C002080140020F7
:10598000214B00100420002078120020E48D00102C
:105990007C8C0010F48D0010540C002070B50D00AC
:1059A000104B1E788B7870221A420DD10E4B9978CD
:1059B000280001F0C9FA041E0DD029003000FFF7BD
:1059C000DFFC0400200070BD08490948094AFFF7C0
:1059D00027F80024F6E705490548074AFFF720F8AD
:1059E000F0E7C046540C0020281400204C8D001015
:1059F0007C8C00100B0500000C050000F0B5D646AD
:105A00004F464646C0B581460C0017009846089B95
:105A10009A46002517E018491848194AFFF700F878
:105A200000263000E0BCBA46B146A846F0BD9D2233
:105A300011491248D200FEF7F3FFF2E7099A1370FA
:105A40002378E4180135AF4214DD6378052BE2D1E9
:105A5000E1788907890F4145DDD121004846FFF7EC
:105A60009DFF061EE3D0A378DA09012AE6D052464C
:105A70001370E5E70126D4E75C8D00107C8C0010E4
:105A8000E704000010B57F200840C9094000401815
:105A90003030044BC0180430034B196801F010FA81
:105AA00010BDC046281400207C14002010B57F20B3
:105AB0000840C909400040183030044BC018043079
:105AC000034B196801F024FA10BDC04628140020C9
:105AD0007C140020F0B5C64600B582B001931A4888
